{
  "_format": "hh-sol-artifact-1",
  "contractName": "FoMoERC721",
  "sourceName": "contracts/FoMoERC721.sol",
  "abi": [
    {
      "anonymous": false,
      "inputs": [
        {
          "indexed": false,
          "internalType": "address",
          "name": "previousAdmin",
          "type": "address"
        },
        {
          "indexed": false,
          "internalType": "address",
          "name": "newAdmin",
          "type": "address"
        }
      ],
      "name": "AdminChanged",
      "type": "event"
    },
    {
      "anonymous": false,
      "inputs": [
        {
          "indexed": true,
          "internalType": "address",
          "name": "owner",
          "type": "address"
        },
        {
          "indexed": true,
          "internalType": "address",
          "name": "approved",
          "type": "address"
        },
        {
          "indexed": true,
          "internalType": "uint256",
          "name": "tokenId",
          "type": "uint256"
        }
      ],
      "name": "Approval",
      "type": "event"
    },
    {
      "anonymous": false,
      "inputs": [
        {
          "indexed": true,
          "internalType": "address",
          "name": "owner",
          "type": "address"
        },
        {
          "indexed": true,
          "internalType": "address",
          "name": "operator",
          "type": "address"
        },
        {
          "indexed": false,
          "internalType": "bool",
          "name": "approved",
          "type": "bool"
        }
      ],
      "name": "ApprovalForAll",
      "type": "event"
    },
    {
      "anonymous": false,
      "inputs": [
        {
          "indexed": true,
          "internalType": "address",
          "name": "beacon",
          "type": "address"
        }
      ],
      "name": "BeaconUpgraded",
      "type": "event"
    },
    {
      "anonymous": false,
      "inputs": [
        {
          "indexed": false,
          "internalType": "uint8",
          "name": "version",
          "type": "uint8"
        }
      ],
      "name": "Initialized",
      "type": "event"
    },
    {
      "anonymous": false,
      "inputs": [
        {
          "indexed": true,
          "internalType": "address",
          "name": "previousOwner",
          "type": "address"
        },
        {
          "indexed": true,
          "internalType": "address",
          "name": "newOwner",
          "type": "address"
        }
      ],
      "name": "OwnershipTransferred",
      "type": "event"
    },
    {
      "anonymous": false,
      "inputs": [
        {
          "indexed": true,
          "internalType": "address",
          "name": "from",
          "type": "address"
        },
        {
          "indexed": true,
          "internalType": "address",
          "name": "to",
          "type": "address"
        },
        {
          "indexed": true,
          "internalType": "uint256",
          "name": "tokenId",
          "type": "uint256"
        }
      ],
      "name": "Transfer",
      "type": "event"
    },
    {
      "anonymous": false,
      "inputs": [
        {
          "indexed": true,
          "internalType": "address",
          "name": "implementation",
          "type": "address"
        }
      ],
      "name": "Upgraded",
      "type": "event"
    },
    {
      "inputs": [],
      "name": "FoMoXD_",
      "outputs": [
        {
          "internalType": "address",
          "name": "",
          "type": "address"
        }
      ],
      "stateMutability": "view",
      "type": "function"
    },
    {
      "inputs": [
        {
          "internalType": "address",
          "name": "to",
          "type": "address"
        },
        {
          "internalType": "uint256",
          "name": "tokenId",
          "type": "uint256"
        }
      ],
      "name": "approve",
      "outputs": [],
      "stateMutability": "nonpayable",
      "type": "function"
    },
    {
      "inputs": [
        {
          "internalType": "address",
          "name": "",
          "type": "address"
        }
      ],
      "name": "balance",
      "outputs": [
        {
          "internalType": "uint256",
          "name": "",
          "type": "uint256"
        }
      ],
      "stateMutability": "view",
      "type": "function"
    },
    {
      "inputs": [
        {
          "internalType": "address",
          "name": "owner",
          "type": "address"
        }
      ],
      "name": "balanceOf",
      "outputs": [
        {
          "internalType": "uint256",
          "name": "",
          "type": "uint256"
        }
      ],
      "stateMutability": "view",
      "type": "function"
    },
    {
      "inputs": [],
      "name": "baseURI_",
      "outputs": [
        {
          "internalType": "string",
          "name": "",
          "type": "string"
        }
      ],
      "stateMutability": "view",
      "type": "function"
    },
    {
      "inputs": [
        {
          "internalType": "bytes32[]",
          "name": "_merkleProof",
          "type": "bytes32[]"
        },
        {
          "internalType": "uint256",
          "name": "_mintAmount",
          "type": "uint256"
        }
      ],
      "name": "earlyMint",
      "outputs": [],
      "stateMutability": "payable",
      "type": "function"
    },
    {
      "inputs": [],
      "name": "earlyMintActive",
      "outputs": [
        {
          "internalType": "bool",
          "name": "",
          "type": "bool"
        }
      ],
      "stateMutability": "view",
      "type": "function"
    },
    {
      "inputs": [],
      "name": "earlyMintMaxBalance",
      "outputs": [
        {
          "internalType": "uint256",
          "name": "",
          "type": "uint256"
        }
      ],
      "stateMutability": "view",
      "type": "function"
    },
    {
      "inputs": [
        {
          "internalType": "address",
          "name": "to",
          "type": "address"
        },
        {
          "internalType": "uint256",
          "name": "_mintAmount",
          "type": "uint256"
        }
      ],
      "name": "foMoXDMint",
      "outputs": [
        {
          "internalType": "uint256[]",
          "name": "",
          "type": "uint256[]"
        }
      ],
      "stateMutability": "payable",
      "type": "function"
    },
    {
      "inputs": [
        {
          "internalType": "uint256",
          "name": "tokenId",
          "type": "uint256"
        }
      ],
      "name": "getApproved",
      "outputs": [
        {
          "internalType": "address",
          "name": "",
          "type": "address"
        }
      ],
      "stateMutability": "view",
      "type": "function"
    },
    {
      "inputs": [
        {
          "internalType": "uint256",
          "name": "roundId",
          "type": "uint256"
        },
        {
          "internalType": "uint256",
          "name": "tokenId",
          "type": "uint256"
        }
      ],
      "name": "getRoundTokenURI",
      "outputs": [
        {
          "internalType": "string",
          "name": "",
          "type": "string"
        }
      ],
      "stateMutability": "view",
      "type": "function"
    },
    {
      "inputs": [
        {
          "internalType": "string",
          "name": "_name",
          "type": "string"
        },
        {
          "internalType": "string",
          "name": "_symbol",
          "type": "string"
        },
        {
          "internalType": "string",
          "name": "_mysteryTokenURI",
          "type": "string"
        }
      ],
      "name": "initialize",
      "outputs": [],
      "stateMutability": "nonpayable",
      "type": "function"
    },
    {
      "inputs": [
        {
          "internalType": "address",
          "name": "owner",
          "type": "address"
        },
        {
          "internalType": "address",
          "name": "operator",
          "type": "address"
        }
      ],
      "name": "isApprovedForAll",
      "outputs": [
        {
          "internalType": "bool",
          "name": "",
          "type": "bool"
        }
      ],
      "stateMutability": "view",
      "type": "function"
    },
    {
      "inputs": [],
      "name": "maxMintPerTx",
      "outputs": [
        {
          "internalType": "uint256",
          "name": "",
          "type": "uint256"
        }
      ],
      "stateMutability": "view",
      "type": "function"
    },
    {
      "inputs": [],
      "name": "maxSupply_",
      "outputs": [
        {
          "internalType": "uint256",
          "name": "",
          "type": "uint256"
        }
      ],
      "stateMutability": "view",
      "type": "function"
    },
    {
      "inputs": [],
      "name": "merkleRoot",
      "outputs": [
        {
          "internalType": "bytes32",
          "name": "",
          "type": "bytes32"
        }
      ],
      "stateMutability": "view",
      "type": "function"
    },
    {
      "inputs": [
        {
          "internalType": "uint256",
          "name": "_mintAmount",
          "type": "uint256"
        }
      ],
      "name": "mint",
      "outputs": [],
      "stateMutability": "payable",
      "type": "function"
    },
    {
      "inputs": [],
      "name": "mintActive",
      "outputs": [
        {
          "internalType": "bool",
          "name": "",
          "type": "bool"
        }
      ],
      "stateMutability": "view",
      "type": "function"
    },
    {
      "inputs": [],
      "name": "mysteryTokenURI_",
      "outputs": [
        {
          "internalType": "string",
          "name": "",
          "type": "string"
        }
      ],
      "stateMutability": "view",
      "type": "function"
    },
    {
      "inputs": [],
      "name": "name",
      "outputs": [
        {
          "internalType": "string",
          "name": "",
          "type": "string"
        }
      ],
      "stateMutability": "view",
      "type": "function"
    },
    {
      "inputs": [],
      "name": "owner",
      "outputs": [
        {
          "internalType": "address",
          "name": "",
          "type": "address"
        }
      ],
      "stateMutability": "view",
      "type": "function"
    },
    {
      "inputs": [],
      "name": "ownerMaxBalance",
      "outputs": [
        {
          "internalType": "uint256",
          "name": "",
          "type": "uint256"
        }
      ],
      "stateMutability": "view",
      "type": "function"
    },
    {
      "inputs": [
        {
          "internalType": "uint256",
          "name": "tokenId",
          "type": "uint256"
        }
      ],
      "name": "ownerOf",
      "outputs": [
        {
          "internalType": "address",
          "name": "",
          "type": "address"
        }
      ],
      "stateMutability": "view",
      "type": "function"
    },
    {
      "inputs": [],
      "name": "price_",
      "outputs": [
        {
          "internalType": "uint256",
          "name": "",
          "type": "uint256"
        }
      ],
      "stateMutability": "view",
      "type": "function"
    },
    {
      "inputs": [],
      "name": "proxiableUUID",
      "outputs": [
        {
          "internalType": "bytes32",
          "name": "",
          "type": "bytes32"
        }
      ],
      "stateMutability": "view",
      "type": "function"
    },
    {
      "inputs": [],
      "name": "renounceOwnership",
      "outputs": [],
      "stateMutability": "nonpayable",
      "type": "function"
    },
    {
      "inputs": [
        {
          "internalType": "uint256",
          "name": "",
          "type": "uint256"
        }
      ],
      "name": "roundIsReveal_",
      "outputs": [
        {
          "internalType": "bool",
          "name": "",
          "type": "bool"
        }
      ],
      "stateMutability": "view",
      "type": "function"
    },
    {
      "inputs": [
        {
          "internalType": "uint256",
          "name": "",
          "type": "uint256"
        }
      ],
      "name": "roundMysteryTokenURI",
      "outputs": [
        {
          "internalType": "string",
          "name": "",
          "type": "string"
        }
      ],
      "stateMutability": "view",
      "type": "function"
    },
    {
      "inputs": [
        {
          "internalType": "address",
          "name": "from",
          "type": "address"
        },
        {
          "internalType": "address",
          "name": "to",
          "type": "address"
        },
        {
          "internalType": "uint256",
          "name": "tokenId",
          "type": "uint256"
        }
      ],
      "name": "safeTransferFrom",
      "outputs": [],
      "stateMutability": "nonpayable",
      "type": "function"
    },
    {
      "inputs": [
        {
          "internalType": "address",
          "name": "from",
          "type": "address"
        },
        {
          "internalType": "address",
          "name": "to",
          "type": "address"
        },
        {
          "internalType": "uint256",
          "name": "tokenId",
          "type": "uint256"
        },
        {
          "internalType": "bytes",
          "name": "data",
          "type": "bytes"
        }
      ],
      "name": "safeTransferFrom",
      "outputs": [],
      "stateMutability": "nonpayable",
      "type": "function"
    },
    {
      "inputs": [
        {
          "internalType": "address",
          "name": "operator",
          "type": "address"
        },
        {
          "internalType": "bool",
          "name": "approved",
          "type": "bool"
        }
      ],
      "name": "setApprovalForAll",
      "outputs": [],
      "stateMutability": "nonpayable",
      "type": "function"
    },
    {
      "inputs": [
        {
          "internalType": "string",
          "name": "_newBaseURI",
          "type": "string"
        }
      ],
      "name": "setBaseURI",
      "outputs": [],
      "stateMutability": "nonpayable",
      "type": "function"
    },
    {
      "inputs": [
        {
          "internalType": "address",
          "name": "_FoMoXD",
          "type": "address"
        }
      ],
      "name": "setFoMoGame",
      "outputs": [],
      "stateMutability": "nonpayable",
      "type": "function"
    },
    {
      "inputs": [
        {
          "internalType": "bytes32",
          "name": "_merkleRoot",
          "type": "bytes32"
        }
      ],
      "name": "setMerkleRoot",
      "outputs": [],
      "stateMutability": "nonpayable",
      "type": "function"
    },
    {
      "inputs": [
        {
          "internalType": "string",
          "name": "_newmysteryTokenURI",
          "type": "string"
        }
      ],
      "name": "setMysteryTokenURI",
      "outputs": [],
      "stateMutability": "nonpayable",
      "type": "function"
    },
    {
      "inputs": [
        {
          "internalType": "uint256",
          "name": "_roundId",
          "type": "uint256"
        },
        {
          "internalType": "string",
          "name": "_newBaseURI",
          "type": "string"
        }
      ],
      "name": "setNftRoundBaseURI",
      "outputs": [],
      "stateMutability": "nonpayable",
      "type": "function"
    },
    {
      "inputs": [
        {
          "internalType": "uint256",
          "name": "_maxBalance",
          "type": "uint256"
        }
      ],
      "name": "setOwnerMaxBalance",
      "outputs": [],
      "stateMutability": "nonpayable",
      "type": "function"
    },
    {
      "inputs": [
        {
          "internalType": "uint256",
          "name": "_price",
          "type": "uint256"
        }
      ],
      "name": "setPrice",
      "outputs": [],
      "stateMutability": "nonpayable",
      "type": "function"
    },
    {
      "inputs": [
        {
          "internalType": "uint256",
          "name": "_roundId",
          "type": "uint256"
        },
        {
          "internalType": "string",
          "name": "_newBaseURI",
          "type": "string"
        }
      ],
      "name": "setRoundMysteryURI",
      "outputs": [],
      "stateMutability": "nonpayable",
      "type": "function"
    },
    {
      "inputs": [
        {
          "internalType": "uint256",
          "name": "_maxBalance",
          "type": "uint256"
        }
      ],
      "name": "setUserMaxBalance",
      "outputs": [],
      "stateMutability": "nonpayable",
      "type": "function"
    },
    {
      "inputs": [
        {
          "internalType": "bytes4",
          "name": "interfaceId",
          "type": "bytes4"
        }
      ],
      "name": "supportsInterface",
      "outputs": [
        {
          "internalType": "bool",
          "name": "",
          "type": "bool"
        }
      ],
      "stateMutability": "view",
      "type": "function"
    },
    {
      "inputs": [],
      "name": "symbol",
      "outputs": [
        {
          "internalType": "string",
          "name": "",
          "type": "string"
        }
      ],
      "stateMutability": "view",
      "type": "function"
    },
    {
      "inputs": [],
      "name": "toggleEarlyMint",
      "outputs": [],
      "stateMutability": "nonpayable",
      "type": "function"
    },
    {
      "inputs": [],
      "name": "toggleMintActive",
      "outputs": [],
      "stateMutability": "nonpayable",
      "type": "function"
    },
    {
      "inputs": [
        {
          "internalType": "uint256",
          "name": "roundId",
          "type": "uint256"
        }
      ],
      "name": "toggleRoundReveal",
      "outputs": [],
      "stateMutability": "nonpayable",
      "type": "function"
    },
    {
      "inputs": [
        {
          "internalType": "uint256",
          "name": "tokenId",
          "type": "uint256"
        }
      ],
      "name": "tokenURI",
      "outputs": [
        {
          "internalType": "string",
          "name": "",
          "type": "string"
        }
      ],
      "stateMutability": "view",
      "type": "function"
    },
    {
      "inputs": [],
      "name": "totalSupply",
      "outputs": [
        {
          "internalType": "uint256",
          "name": "",
          "type": "uint256"
        }
      ],
      "stateMutability": "view",
      "type": "function"
    },
    {
      "inputs": [
        {
          "internalType": "address",
          "name": "from",
          "type": "address"
        },
        {
          "internalType": "address",
          "name": "to",
          "type": "address"
        },
        {
          "internalType": "uint256",
          "name": "tokenId",
          "type": "uint256"
        }
      ],
      "name": "transferFrom",
      "outputs": [],
      "stateMutability": "nonpayable",
      "type": "function"
    },
    {
      "inputs": [
        {
          "internalType": "address",
          "name": "newOwner",
          "type": "address"
        }
      ],
      "name": "transferOwnership",
      "outputs": [],
      "stateMutability": "nonpayable",
      "type": "function"
    },
    {
      "inputs": [
        {
          "internalType": "address",
          "name": "newImplementation",
          "type": "address"
        }
      ],
      "name": "upgradeTo",
      "outputs": [],
      "stateMutability": "nonpayable",
      "type": "function"
    },
    {
      "inputs": [
        {
          "internalType": "address",
          "name": "newImplementation",
          "type": "address"
        },
        {
          "internalType": "bytes",
          "name": "data",
          "type": "bytes"
        }
      ],
      "name": "upgradeToAndCall",
      "outputs": [],
      "stateMutability": "payable",
      "type": "function"
    },
    {
      "inputs": [],
      "name": "userMaxBalance",
      "outputs": [
        {
          "internalType": "uint256",
          "name": "",
          "type": "uint256"
        }
      ],
      "stateMutability": "view",
      "type": "function"
    },
    {
      "inputs": [
        {
          "internalType": "address",
          "name": "",
          "type": "address"
        }
      ],
      "name": "whiteListClaimed",
      "outputs": [
        {
          "internalType": "uint256",
          "name": "",
          "type": "uint256"
        }
      ],
      "stateMutability": "view",
      "type": "function"
    },
    {
      "inputs": [],
      "name": "withdrawBalance",
      "outputs": [],
      "stateMutability": "nonpayable",
      "type": "function"
    }
  ],
  "bytecode": "0x60a06040523073ffffffffffffffffffffffffffffffffffffffff1660809073ffffffffffffffffffffffffffffffffffffffff1681525034801561004357600080fd5b5060805161647a6200007c60003960008181611045015281816110d30152818161121e015281816112ac015261138d015261647a6000f3fe6080604052600436106103355760003560e01c8063715018a6116101ab578063c30c2396116100f7578063e985e9c511610095578063f259a29e1161006f578063f259a29e14610bce578063f2fde38b14610bf9578063fcc077e814610c22578063fe87f2d614610c4d57610335565b8063e985e9c514610b3b578063ee4d24f714610b78578063efc876e414610ba357610335565b8063d02c2bf2116100d1578063d02c2bf214610a7f578063d2fd999914610a96578063de7fcb1d14610ad3578063e3d670d714610afe57610335565b8063c30c2396146109ee578063c87b56dd14610a17578063ce40b03f14610a5457610335565b806395d89b4111610164578063a6487c531161013e578063a6487c5314610948578063b87a5fee14610971578063b886c2591461099a578063b88d4fde146109c557610335565b806395d89b41146108d8578063a0712d6814610903578063a22cb4651461091f57610335565b8063715018a6146107d75780637cb64759146107ee5780637fc0000f146108175780638da5cb5b1461084757806390174d0a1461087257806391b7f5ed146108af57610335565b80632fb16bc81161028557806355f804b3116102235780636352211e116101fd5780636352211e1461071d57806367231d281461075a5780636ff962931461078357806370a082311461079a57610335565b806355f804b3146106c15780635c1c0af2146106ea5780635fd8c7101461070657610335565b806342842e0e1161025f57806342842e0e146106285780634f1ef28614610651578063526260291461066d57806352d1902d1461069657610335565b80632fb16bc8146105ab5780633659cfe6146105d65780633fbef9e2146105ff57610335565b80630a9b8b93116102f25780632333f3c4116102cc5780632333f3c4146104ef57806323b872dd1461052c57806325fd90f3146105555780632eb4a7ab1461058057610335565b80630a9b8b93146104705780630c238cda1461049957806318160ddd146104c457610335565b806301ffc9a71461033a57806305fbbe221461037757806306fdde03146103b4578063081812fc146103df578063095ea7b31461041c578063097284b214610445575b600080fd5b34801561034657600080fd5b50610361600480360381019061035c9190614091565b610c76565b60405161036e91906140d9565b60405180910390f35b34801561038357600080fd5b5061039e6004803603810190610399919061412a565b610d58565b6040516103ab91906140d9565b60405180910390f35b3480156103c057600080fd5b506103c9610d79565b6040516103d691906141e7565b60405180910390f35b3480156103eb57600080fd5b506104066004803603810190610401919061412a565b610e0b565b604051610413919061424a565b60405180910390f35b34801561042857600080fd5b50610443600480360381019061043e9190614291565b610e51565b005b34801561045157600080fd5b5061045a610f68565b60405161046791906142e0565b60405180910390f35b34801561047c57600080fd5b506104976004803603810190610492919061412a565b610f6f565b005b3480156104a557600080fd5b506104ae610f82565b6040516104bb91906142e0565b60405180910390f35b3480156104d057600080fd5b506104d9610f89565b6040516104e691906142e0565b60405180910390f35b3480156104fb57600080fd5b50610516600480360381019061051191906142fb565b610f9b565b60405161052391906142e0565b60405180910390f35b34801561053857600080fd5b50610553600480360381019061054e9190614328565b610fb4565b005b34801561056157600080fd5b5061056a611014565b60405161057791906140d9565b60405180910390f35b34801561058c57600080fd5b50610595611028565b6040516105a29190614394565b60405180910390f35b3480156105b757600080fd5b506105c061102f565b6040516105cd91906140d9565b60405180910390f35b3480156105e257600080fd5b506105fd60048036038101906105f891906142fb565b611043565b005b34801561060b57600080fd5b5061062660048036038101906106219190614414565b6111cb565b005b34801561063457600080fd5b5061064f600480360381019061064a9190614328565b6111fc565b005b61066b600480360381019061066691906145a4565b61121c565b005b34801561067957600080fd5b50610694600480360381019061068f9190614414565b611358565b005b3480156106a257600080fd5b506106ab611389565b6040516106b89190614394565b60405180910390f35b3480156106cd57600080fd5b506106e860048036038101906106e39190614600565b611442565b005b61070460048036038101906106ff91906146a3565b611461565b005b34801561071257600080fd5b5061071b61174d565b005b34801561072957600080fd5b50610744600480360381019061073f919061412a565b61184e565b604051610751919061424a565b60405180910390f35b34801561076657600080fd5b50610781600480360381019061077c919061412a565b6118d4565b005b34801561078f57600080fd5b506107986118e7565b005b3480156107a657600080fd5b506107c160048036038101906107bc91906142fb565b61191d565b6040516107ce91906142e0565b60405180910390f35b3480156107e357600080fd5b506107ec6119d4565b005b3480156107fa57600080fd5b506108156004803603810190610810919061472f565b6119e8565b005b610831600480360381019061082c9190614291565b6119fb565b60405161083e919061481a565b60405180910390f35b34801561085357600080fd5b5061085c611c3b565b604051610869919061424a565b60405180910390f35b34801561087e57600080fd5b506108996004803603810190610894919061483c565b611c65565b6040516108a691906141e7565b60405180910390f35b3480156108bb57600080fd5b506108d660048036038101906108d1919061412a565b611e9c565b005b3480156108e457600080fd5b506108ed611eaf565b6040516108fa91906141e7565b60405180910390f35b61091d6004803603810190610918919061412a565b611f41565b005b34801561092b57600080fd5b50610946600480360381019061094191906148a8565b6120d7565b005b34801561095457600080fd5b5061096f600480360381019061096a9190614989565b6120ed565b005b34801561097d57600080fd5b506109986004803603810190610993919061412a565b612285565b005b3480156109a657600080fd5b506109af6123a4565b6040516109bc91906142e0565b60405180910390f35b3480156109d157600080fd5b506109ec60048036038101906109e79190614a30565b6123ab565b005b3480156109fa57600080fd5b50610a156004803603810190610a109190614600565b61240d565b005b348015610a2357600080fd5b50610a3e6004803603810190610a39919061412a565b61242c565b604051610a4b91906141e7565b60405180910390f35b348015610a6057600080fd5b50610a69612494565b604051610a7691906142e0565b60405180910390f35b348015610a8b57600080fd5b50610a9461249b565b005b348015610aa257600080fd5b50610abd6004803603810190610ab8919061412a565b6124d1565b604051610aca91906141e7565b60405180910390f35b348015610adf57600080fd5b50610ae8612572565b604051610af591906142e0565b60405180910390f35b348015610b0a57600080fd5b50610b256004803603810190610b2091906142fb565b612579565b604051610b3291906142e0565b60405180910390f35b348015610b4757600080fd5b50610b626004803603810190610b5d9190614ab3565b612592565b604051610b6f91906140d9565b60405180910390f35b348015610b8457600080fd5b50610b8d612626565b604051610b9a919061424a565b60405180910390f35b348015610baf57600080fd5b50610bb861264d565b604051610bc591906142e0565b60405180910390f35b348015610bda57600080fd5b50610be3612654565b604051610bf091906141e7565b60405180910390f35b348015610c0557600080fd5b50610c206004803603810190610c1b91906142fb565b6126e3565b005b348015610c2e57600080fd5b50610c37612766565b604051610c4491906141e7565b60405180910390f35b348015610c5957600080fd5b50610c746004803603810190610c6f91906142fb565b6127f5565b005b60007f80ac58cd000000000000000000000000000000000000000000000000000000007bffffffffffffffffffffffffffffffffffffffffffffffffffffffff1916827bffffffffffffffffffffffffffffffffffffffffffffffffffffffff19161480610d4157507f5b5e139f000000000000000000000000000000000000000000000000000000007bffffffffffffffffffffffffffffffffffffffffffffffffffffffff1916827bffffffffffffffffffffffffffffffffffffffffffffffffffffffff1916145b80610d515750610d5082612842565b5b9050919050565b6101386020528060005260406000206000915054906101000a900460ff1681565b606060658054610d8890614b22565b80601f0160208091040260200160405190810160405280929190818152602001828054610db490614b22565b8015610e015780601f10610dd657610100808354040283529160200191610e01565b820191906000526020600020905b815481529060010190602001808311610de457829003601f168201915b5050505050905090565b6000610e16826128ac565b6069600083815260200190815260200160002060009054906101000a900473ffffffffffffffffffffffffffffffffffffffff169050919050565b6000610e5c8261184e565b90508073ffffffffffffffffffffffffffffffffffffffff168373ffffffffffffffffffffffffffffffffffffffff1603610ecc576040517f08c379a0000000000000000000000000000000000000000000000000000000008152600401610ec390614bc5565b60405180910390fd5b8073ffffffffffffffffffffffffffffffffffffffff16610eeb6128f7565b73ffffffffffffffffffffffffffffffffffffffff161480610f1a5750610f1981610f146128f7565b612592565b5b610f59576040517f08c379a0000000000000000000000000000000000000000000000000000000008152600401610f5090614c57565b60405180910390fd5b610f6383836128ff565b505050565b6101335481565b610f776129b8565b806101368190555050565b6101355481565b6000610f9661012d612a36565b905090565b61013b6020528060005260406000206000915090505481565b610fc5610fbf6128f7565b82612a44565b611004576040517f08c379a0000000000000000000000000000000000000000000000000000000008152600401610ffb90614ce9565b60405180910390fd5b61100f838383612ad9565b505050565b61012e60149054906101000a900460ff1681565b6101315481565b61012e60159054906101000a900460ff1681565b7f000000000000000000000000000000000000000000000000000000000000000073ffffffffffffffffffffffffffffffffffffffff163073ffffffffffffffffffffffffffffffffffffffff16036110d1576040517f08c379a00000000000000000000000000000000000000000000000000000000081526004016110c890614d7b565b60405180910390fd5b7f000000000000000000000000000000000000000000000000000000000000000073ffffffffffffffffffffffffffffffffffffffff16611110612dd2565b73ffffffffffffffffffffffffffffffffffffffff1614611166576040517f08c379a000000000000000000000000000000000000000000000000000000000815260040161115d90614e0d565b60405180910390fd5b61116f81612e29565b6111c881600067ffffffffffffffff81111561118e5761118d614479565b5b6040519080825280601f01601f1916602001820160405280156111c05781602001600182028036833780820191505090505b506000612e34565b50565b6111d36129b8565b818161013a600086815260200190815260200160002091826111f6929190614fe4565b50505050565b611217838383604051806020016040528060008152506123ab565b505050565b7f000000000000000000000000000000000000000000000000000000000000000073ffffffffffffffffffffffffffffffffffffffff163073ffffffffffffffffffffffffffffffffffffffff16036112aa576040517f08c379a00000000000000000000000000000000000000000000000000000000081526004016112a190614d7b565b60405180910390fd5b7f000000000000000000000000000000000000000000000000000000000000000073ffffffffffffffffffffffffffffffffffffffff166112e9612dd2565b73ffffffffffffffffffffffffffffffffffffffff161461133f576040517f08c379a000000000000000000000000000000000000000000000000000000000815260040161133690614e0d565b60405180910390fd5b61134882612e29565b61135482826001612e34565b5050565b6113606129b8565b818161013960008681526020019081526020016000209182611383929190614fe4565b50505050565b60007f000000000000000000000000000000000000000000000000000000000000000073ffffffffffffffffffffffffffffffffffffffff163073ffffffffffffffffffffffffffffffffffffffff1614611419576040517f08c379a000000000000000000000000000000000000000000000000000000000815260040161141090615126565b60405180910390fd5b7f360894a13ba1a3210667c828492db98dca3e2076cc3735a920a3ca505d382bbc60001b905090565b61144a6129b8565b818161012f918261145c929190614fe4565b505050565b8060008161013d60003373ffffffffffffffffffffffffffffffffffffffff1673ffffffffffffffffffffffffffffffffffffffff16815260200190815260200160002060008282546114b49190615175565b92505081905590503373ffffffffffffffffffffffffffffffffffffffff166114db611c3b565b73ffffffffffffffffffffffffffffffffffffffff16146114ff5761013654611504565b610135545b811115611546576040517f08c379a000000000000000000000000000000000000000000000000000000000815260040161153d906151f5565b60405180910390fd5b8280610132546115569190615215565b341015611598576040517f08c379a000000000000000000000000000000000000000000000000000000000815260040161158f906152a3565b60405180910390fd5b61012e60159054906101000a900460ff166115e8576040517f08c379a00000000000000000000000000000000000000000000000000000000081526004016115df90615335565b60405180910390fd5b610134548461013b60003373ffffffffffffffffffffffffffffffffffffffff1673ffffffffffffffffffffffffffffffffffffffff168152602001908152602001600020546116389190615175565b10611678576040517f08c379a000000000000000000000000000000000000000000000000000000000815260040161166f906153c7565b60405180910390fd5b60003360405160200161168b919061542f565b6040516020818303038152906040528051906020012090506116fc6101315482898980806020026020016040519081016040528093929190818152602001838360200280828437600081840152601f19601f82011690508083019250505050505050612fa29092919063ffffffff16565b61173b576040517f08c379a0000000000000000000000000000000000000000000000000000000008152600401611732906154bc565b60405180910390fd5b61174485612fb9565b50505050505050565b6117556129b8565b60004711611798576040517f08c379a000000000000000000000000000000000000000000000000000000000815260040161178f90615528565b60405180910390fd5b60006117a2611c3b565b73ffffffffffffffffffffffffffffffffffffffff16476040516117c590615579565b60006040518083038185875af1925050503d8060008114611802576040519150601f19603f3d011682016040523d82523d6000602084013e611807565b606091505b505090508061184b576040517f08c379a0000000000000000000000000000000000000000000000000000000008152600401611842906155da565b60405180910390fd5b50565b60008061185a836130b5565b9050600073ffffffffffffffffffffffffffffffffffffffff168173ffffffffffffffffffffffffffffffffffffffff16036118cb576040517f08c379a00000000000000000000000000000000000000000000000000000000081526004016118c290615646565b60405180910390fd5b80915050919050565b6118dc6129b8565b806101358190555050565b6118ef6129b8565b61012e60159054906101000a900460ff161561012e60156101000a81548160ff021916908315150217905550565b60008073ffffffffffffffffffffffffffffffffffffffff168273ffffffffffffffffffffffffffffffffffffffff160361198d576040517f08c379a0000000000000000000000000000000000000000000000000000000008152600401611984906156d8565b60405180910390fd5b606860008373ffffffffffffffffffffffffffffffffffffffff1673ffffffffffffffffffffffffffffffffffffffff168152602001908152602001600020549050919050565b6119dc6129b8565b6119e660006130f2565b565b6119f06129b8565b806101318190555050565b606061012e60009054906101000a900473ffffffffffffffffffffffffffffffffffffffff1673ffffffffffffffffffffffffffffffffffffffff163373ffffffffffffffffffffffffffffffffffffffff161480611a8c5750611a5d611c3b565b73ffffffffffffffffffffffffffffffffffffffff163373ffffffffffffffffffffffffffffffffffffffff16145b611acb576040517f08c379a0000000000000000000000000000000000000000000000000000000008152600401611ac290615744565b60405180910390fd5b6000611ad861012d612a36565b9050610133548382611aea9190615175565b10611b2a576040517f08c379a0000000000000000000000000000000000000000000000000000000008152600401611b21906157d6565b60405180910390fd5b8261013d60008673ffffffffffffffffffffffffffffffffffffffff1673ffffffffffffffffffffffffffffffffffffffff1681526020019081526020016000206000828254611b7a9190615175565b9250508190555060008367ffffffffffffffff811115611b9d57611b9c614479565b5b604051908082528060200260200182016040528015611bcb5781602001602082028036833780820191505090505b50905060005b84811015611c2457611be386846131b8565b82828281518110611bf757611bf66157f6565b5b6020026020010181815250508280611c0e90615825565b9350508080611c1c90615825565b915050611bd1565b508161012d60000181905550809250505092915050565b6000609760009054906101000a900473ffffffffffffffffffffffffffffffffffffffff16905090565b6060611c70826128ac565b610138600084815260200190815260200160002060009054906101000a900460ff1615611dc55760008061013960008681526020019081526020016000208054611cb990614b22565b905011611cc85761012f611cdd565b61013960008581526020019081526020016000205b8054611ce890614b22565b80601f0160208091040260200160405190810160405280929190818152602001828054611d1490614b22565b8015611d615780601f10611d3657610100808354040283529160200191611d61565b820191906000526020600020905b815481529060010190602001808311611d4457829003601f168201915b505050505090506000815111611d865760405180602001604052806000815250611dbd565b80611d9c600185611d979190615175565b6131d6565b604051602001611dad9291906158f5565b6040516020818303038152906040525b915050611e96565b600061013a60008581526020019081526020016000208054611de690614b22565b905011611df557610130611e0a565b61013a60008481526020019081526020016000205b8054611e1590614b22565b80601f0160208091040260200160405190810160405280929190818152602001828054611e4190614b22565b8015611e8e5780601f10611e6357610100808354040283529160200191611e8e565b820191906000526020600020905b815481529060010190602001808311611e7157829003601f168201915b505050505090505b92915050565b611ea46129b8565b806101328190555050565b606060668054611ebe90614b22565b80601f0160208091040260200160405190810160405280929190818152602001828054611eea90614b22565b8015611f375780601f10611f0c57610100808354040283529160200191611f37565b820191906000526020600020905b815481529060010190602001808311611f1a57829003601f168201915b5050505050905090565b8060008161013d60003373ffffffffffffffffffffffffffffffffffffffff1673ffffffffffffffffffffffffffffffffffffffff1681526020019081526020016000206000828254611f949190615175565b92505081905590503373ffffffffffffffffffffffffffffffffffffffff16611fbb611c3b565b73ffffffffffffffffffffffffffffffffffffffff1614611fdf5761013654611fe4565b610135545b811115612026576040517f08c379a000000000000000000000000000000000000000000000000000000000815260040161201d906151f5565b60405180910390fd5b8280610132546120369190615215565b341015612078576040517f08c379a000000000000000000000000000000000000000000000000000000000815260040161206f906152a3565b60405180910390fd5b61012e60149054906101000a900460ff166120c8576040517f08c379a00000000000000000000000000000000000000000000000000000000081526004016120bf90615970565b60405180910390fd5b6120d184612fb9565b50505050565b6120e96120e26128f7565b83836132a4565b5050565b60008060019054906101000a900460ff1615905080801561211e5750600160008054906101000a900460ff1660ff16105b8061214b575061212d30613410565b15801561214a5750600160008054906101000a900460ff1660ff16145b5b61218a576040517f08c379a000000000000000000000000000000000000000000000000000000000815260040161218190615a02565b60405180910390fd5b60016000806101000a81548160ff021916908360ff16021790555080156121c7576001600060016101000a81548160ff0219169083151502179055505b6121d18484613433565b6121d9613490565b662386f26fc1000061013281905550603261013381905550600361013481905550601461013581905550600a610136819055506005610137819055508161013090816122259190615a22565b50801561227f5760008060016101000a81548160ff0219169083151502179055507f7f26b83ff96e1f2b6a682f133852f6798a09c465da95921460cefb384740249860016040516122769190615b3c565b60405180910390a15b50505050565b61012e60009054906101000a900473ffffffffffffffffffffffffffffffffffffffff1673ffffffffffffffffffffffffffffffffffffffff163373ffffffffffffffffffffffffffffffffffffffff16148061231457506122e5611c3b565b73ffffffffffffffffffffffffffffffffffffffff163373ffffffffffffffffffffffffffffffffffffffff16145b612353576040517f08c379a000000000000000000000000000000000000000000000000000000000815260040161234a90615744565b60405180910390fd5b610138600082815260200190815260200160002060009054906101000a900460ff1615610138600083815260200190815260200160002060006101000a81548160ff02191690831515021790555050565b6101345481565b6123bc6123b66128f7565b83612a44565b6123fb576040517f08c379a00000000000000000000000000000000000000000000000000000000081526004016123f290614ce9565b60405180910390fd5b612407848484846134e9565b50505050565b6124156129b8565b81816101309182612427929190614fe4565b505050565b6060612437826128ac565b6000612441613545565b90506000815111612461576040518060200160405280600081525061248c565b8061246b846131d6565b60405160200161247c929190615b57565b6040516020818303038152906040525b915050919050565b6101325481565b6124a36129b8565b61012e60149054906101000a900460ff161561012e60146101000a81548160ff021916908315150217905550565b61013a60205280600052604060002060009150905080546124f190614b22565b80601f016020809104026020016040519081016040528092919081815260200182805461251d90614b22565b801561256a5780601f1061253f5761010080835404028352916020019161256a565b820191906000526020600020905b81548152906001019060200180831161254d57829003601f168201915b505050505081565b6101375481565b61013d6020528060005260406000206000915090505481565b6000606a60008473ffffffffffffffffffffffffffffffffffffffff1673ffffffffffffffffffffffffffffffffffffffff16815260200190815260200160002060008373ffffffffffffffffffffffffffffffffffffffff1673ffffffffffffffffffffffffffffffffffffffff16815260200190815260200160002060009054906101000a900460ff16905092915050565b61012e60009054906101000a900473ffffffffffffffffffffffffffffffffffffffff1681565b6101365481565b61012f805461266290614b22565b80601f016020809104026020016040519081016040528092919081815260200182805461268e90614b22565b80156126db5780601f106126b0576101008083540402835291602001916126db565b820191906000526020600020905b8154815290600101906020018083116126be57829003601f168201915b505050505081565b6126eb6129b8565b600073ffffffffffffffffffffffffffffffffffffffff168173ffffffffffffffffffffffffffffffffffffffff160361275a576040517f08c379a000000000000000000000000000000000000000000000000000000000815260040161275190615bed565b60405180910390fd5b612763816130f2565b50565b610130805461277490614b22565b80601f01602080910402602001604051908101604052809291908181526020018280546127a090614b22565b80156127ed5780601f106127c2576101008083540402835291602001916127ed565b820191906000526020600020905b8154815290600101906020018083116127d057829003601f168201915b505050505081565b6127fd6129b8565b8061012e60006101000a81548173ffffffffffffffffffffffffffffffffffffffff021916908373ffffffffffffffffffffffffffffffffffffffff16021790555050565b60007f01ffc9a7000000000000000000000000000000000000000000000000000000007bffffffffffffffffffffffffffffffffffffffffffffffffffffffff1916827bffffffffffffffffffffffffffffffffffffffffffffffffffffffff1916149050919050565b6128b58161355c565b6128f4576040517f08c379a00000000000000000000000000000000000000000000000000000000081526004016128eb90615646565b60405180910390fd5b50565b600033905090565b816069600083815260200190815260200160002060006101000a81548173ffffffffffffffffffffffffffffffffffffffff021916908373ffffffffffffffffffffffffffffffffffffffff160217905550808273ffffffffffffffffffffffffffffffffffffffff166129728361184e565b73ffffffffffffffffffffffffffffffffffffffff167f8c5be1e5ebec7d5bd14f71427d1e84f3dd0314c0f7b2291e5b200ac8c7c3b92560405160405180910390a45050565b6129c06128f7565b73ffffffffffffffffffffffffffffffffffffffff166129de611c3b565b73ffffffffffffffffffffffffffffffffffffffff1614612a34576040517f08c379a0000000000000000000000000000000000000000000000000000000008152600401612a2b90615c59565b60405180910390fd5b565b600081600001549050919050565b600080612a508361184e565b90508073ffffffffffffffffffffffffffffffffffffffff168473ffffffffffffffffffffffffffffffffffffffff161480612a925750612a918185612592565b5b80612ad057508373ffffffffffffffffffffffffffffffffffffffff16612ab884610e0b565b73ffffffffffffffffffffffffffffffffffffffff16145b91505092915050565b8273ffffffffffffffffffffffffffffffffffffffff16612af98261184e565b73ffffffffffffffffffffffffffffffffffffffff1614612b4f576040517f08c379a0000000000000000000000000000000000000000000000000000000008152600401612b4690615ceb565b60405180910390fd5b600073ffffffffffffffffffffffffffffffffffffffff168273ffffffffffffffffffffffffffffffffffffffff1603612bbe576040517f08c379a0000000000000000000000000000000000000000000000000000000008152600401612bb590615d7d565b60405180910390fd5b612bcb838383600161359d565b8273ffffffffffffffffffffffffffffffffffffffff16612beb8261184e565b73ffffffffffffffffffffffffffffffffffffffff1614612c41576040517f08c379a0000000000000000000000000000000000000000000000000000000008152600401612c3890615ceb565b60405180910390fd5b6069600082815260200190815260200160002060006101000a81549073ffffffffffffffffffffffffffffffffffffffff02191690556001606860008573ffffffffffffffffffffffffffffffffffffffff1673ffffffffffffffffffffffffffffffffffffffff168152602001908152602001600020600082825403925050819055506001606860008473ffffffffffffffffffffffffffffffffffffffff1673ffffffffffffffffffffffffffffffffffffffff16815260200190815260200160002060008282540192505081905550816067600083815260200190815260200160002060006101000a81548173ffffffffffffffffffffffffffffffffffffffff021916908373ffffffffffffffffffffffffffffffffffffffff160217905550808273ffffffffffffffffffffffffffffffffffffffff168473ffffffffffffffffffffffffffffffffffffffff167fddf252ad1be2c89b69c2b068fc378daa952ba7f163c4a11628f55a4df523b3ef60405160405180910390a4612dcd83838360016136c3565b505050565b6000612e007f360894a13ba1a3210667c828492db98dca3e2076cc3735a920a3ca505d382bbc60001b6136c9565b60000160009054906101000a900473ffffffffffffffffffffffffffffffffffffffff16905090565b612e316129b8565b50565b612e607f4910fdfa16fed3260ed0e7147f7cc6da11a60208b5b9406d12a635614ffd914360001b6136d3565b60000160009054906101000a900460ff1615612e8457612e7f836136dd565b612f9d565b8273ffffffffffffffffffffffffffffffffffffffff166352d1902d6040518163ffffffff1660e01b8152600401602060405180830381865afa925050508015612eec57506040513d601f19601f82011682018060405250810190612ee99190615db2565b60015b612f2b576040517f08c379a0000000000000000000000000000000000000000000000000000000008152600401612f2290615e51565b60405180910390fd5b7f360894a13ba1a3210667c828492db98dca3e2076cc3735a920a3ca505d382bbc60001b8114612f90576040517f08c379a0000000000000000000000000000000000000000000000000000000008152600401612f8790615ee3565b60405180910390fd5b50612f9c838383613796565b5b505050565b600082612faf85846137c2565b1490509392505050565b6000612fc661012d612a36565b9050610133548282612fd89190615175565b10613018576040517f08c379a000000000000000000000000000000000000000000000000000000000815260040161300f906157d6565b60405180910390fd5b8161013d60003373ffffffffffffffffffffffffffffffffffffffff1673ffffffffffffffffffffffffffffffffffffffff16815260200190815260200160002060008282546130689190615175565b9250508190555060005b828110156130a55761308433836131b8565b818061308f90615825565b925050808061309d90615825565b915050613072565b508061012d600001819055505050565b60006067600083815260200190815260200160002060009054906101000a900473ffffffffffffffffffffffffffffffffffffffff169050919050565b6000609760009054906101000a900473ffffffffffffffffffffffffffffffffffffffff16905081609760006101000a81548173ffffffffffffffffffffffffffffffffffffffff021916908373ffffffffffffffffffffffffffffffffffffffff1602179055508173ffffffffffffffffffffffffffffffffffffffff168173ffffffffffffffffffffffffffffffffffffffff167f8be0079c531659141344cd1fd0a4f28419497f9722a3daafe3b4186f6b6457e060405160405180910390a35050565b6131d2828260405180602001604052806000815250613818565b5050565b6060600060016131e584613873565b01905060008167ffffffffffffffff81111561320457613203614479565b5b6040519080825280601f01601f1916602001820160405280156132365781602001600182028036833780820191505090505b509050600082602001820190505b600115613299578080600190039150507f3031323334353637383961626364656600000000000000000000000000000000600a86061a8153600a858161328d5761328c615f03565b5b04945060008503613244575b819350505050919050565b8173ffffffffffffffffffffffffffffffffffffffff168373ffffffffffffffffffffffffffffffffffffffff1603613312576040517f08c379a000000000000000000000000000000000000000000000000000000000815260040161330990615f7e565b60405180910390fd5b80606a60008573ffffffffffffffffffffffffffffffffffffffff1673ffffffffffffffffffffffffffffffffffffffff16815260200190815260200160002060008473ffffffffffffffffffffffffffffffffffffffff1673ffffffffffffffffffffffffffffffffffffffff16815260200190815260200160002060006101000a81548160ff0219169083151502179055508173ffffffffffffffffffffffffffffffffffffffff168373ffffffffffffffffffffffffffffffffffffffff167f17307eab39ab6107e8899845ad3d59bd9653f200f220920489ca2b5937696c318360405161340391906140d9565b60405180910390a3505050565b6000808273ffffffffffffffffffffffffffffffffffffffff163b119050919050565b600060019054906101000a900460ff16613482576040517f08c379a000000000000000000000000000000000000000000000000000000000815260040161347990616010565b60405180910390fd5b61348c82826139c6565b5050565b600060019054906101000a900460ff166134df576040517f08c379a00000000000000000000000000000000000000000000000000000000081526004016134d690616010565b60405180910390fd5b6134e7613a39565b565b6134f4848484612ad9565b61350084848484613a9a565b61353f576040517f08c379a0000000000000000000000000000000000000000000000000000000008152600401613536906160a2565b60405180910390fd5b50505050565b606060405180602001604052806000815250905090565b60008073ffffffffffffffffffffffffffffffffffffffff1661357e836130b5565b73ffffffffffffffffffffffffffffffffffffffff1614159050919050565b60018111156136bd57600073ffffffffffffffffffffffffffffffffffffffff168473ffffffffffffffffffffffffffffffffffffffff16146136315780606860008673ffffffffffffffffffffffffffffffffffffffff1673ffffffffffffffffffffffffffffffffffffffff168152602001908152602001600020600082825461362991906160c2565b925050819055505b600073ffffffffffffffffffffffffffffffffffffffff168373ffffffffffffffffffffffffffffffffffffffff16146136bc5780606860008573ffffffffffffffffffffffffffffffffffffffff1673ffffffffffffffffffffffffffffffffffffffff16815260200190815260200160002060008282546136b49190615175565b925050819055505b5b50505050565b50505050565b6000819050919050565b6000819050919050565b6136e681613410565b613725576040517f08c379a000000000000000000000000000000000000000000000000000000000815260040161371c90616168565b60405180910390fd5b806137527f360894a13ba1a3210667c828492db98dca3e2076cc3735a920a3ca505d382bbc60001b6136c9565b60000160006101000a81548173ffffffffffffffffffffffffffffffffffffffff021916908373ffffffffffffffffffffffffffffffffffffffff16021790555050565b61379f83613c21565b6000825111806137ac5750805b156137bd576137bb8383613c70565b505b505050565b60008082905060005b845181101561380d576137f8828683815181106137eb576137ea6157f6565b5b6020026020010151613d54565b9150808061380590615825565b9150506137cb565b508091505092915050565b6138228383613d7f565b61382f6000848484613a9a565b61386e576040517f08c379a0000000000000000000000000000000000000000000000000000000008152600401613865906160a2565b60405180910390fd5b505050565b600080600090507a184f03e93ff9f4daa797ed6e38ed64bf6a1f01000000000000000083106138d1577a184f03e93ff9f4daa797ed6e38ed64bf6a1f01000000000000000083816138c7576138c6615f03565b5b0492506040810190505b6d04ee2d6d415b85acef8100000000831061390e576d04ee2d6d415b85acef8100000000838161390457613903615f03565b5b0492506020810190505b662386f26fc10000831061393d57662386f26fc10000838161393357613932615f03565b5b0492506010810190505b6305f5e1008310613966576305f5e100838161395c5761395b615f03565b5b0492506008810190505b612710831061398b57612710838161398157613980615f03565b5b0492506004810190505b606483106139ae57606483816139a4576139a3615f03565b5b0492506002810190505b600a83106139bd576001810190505b80915050919050565b600060019054906101000a900460ff16613a15576040517f08c379a0000000000000000000000000000000000000000000000000000000008152600401613a0c90616010565b60405180910390fd5b8160659081613a249190615a22565b508060669081613a349190615a22565b505050565b600060019054906101000a900460ff16613a88576040517f08c379a0000000000000000000000000000000000000000000000000000000008152600401613a7f90616010565b60405180910390fd5b613a98613a936128f7565b6130f2565b565b6000613abb8473ffffffffffffffffffffffffffffffffffffffff16613410565b15613c14578373ffffffffffffffffffffffffffffffffffffffff1663150b7a02613ae46128f7565b8786866040518563ffffffff1660e01b8152600401613b0694939291906161dd565b6020604051808303816000875af1925050508015613b4257506040513d601f19601f82011682018060405250810190613b3f919061623e565b60015b613bc4573d8060008114613b72576040519150601f19603f3d011682016040523d82523d6000602084013e613b77565b606091505b506000815103613bbc576040517f08c379a0000000000000000000000000000000000000000000000000000000008152600401613bb3906160a2565b60405180910390fd5b805181602001fd5b63150b7a0260e01b7bffffffffffffffffffffffffffffffffffffffffffffffffffffffff1916817bffffffffffffffffffffffffffffffffffffffffffffffffffffffff191614915050613c19565b600190505b949350505050565b613c2a816136dd565b8073ffffffffffffffffffffffffffffffffffffffff167fbc7cd75a20ee27fd9adebab32041f755214dbc6bffa90cc0225b39da2e5c2d3b60405160405180910390a250565b6060613c7b83613410565b613cba576040517f08c379a0000000000000000000000000000000000000000000000000000000008152600401613cb1906162dd565b60405180910390fd5b6000808473ffffffffffffffffffffffffffffffffffffffff1684604051613ce2919061632e565b600060405180830381855af49150503d8060008114613d1d576040519150601f19603f3d011682016040523d82523d6000602084013e613d22565b606091505b5091509150613d4a828260405180606001604052806027815260200161641e60279139613f9c565b9250505092915050565b6000818310613d6c57613d678284613fbe565b613d77565b613d768383613fbe565b5b905092915050565b600073ffffffffffffffffffffffffffffffffffffffff168273ffffffffffffffffffffffffffffffffffffffff1603613dee576040517f08c379a0000000000000000000000000000000000000000000000000000000008152600401613de590616391565b60405180910390fd5b613df78161355c565b15613e37576040517f08c379a0000000000000000000000000000000000000000000000000000000008152600401613e2e906163fd565b60405180910390fd5b613e4560008383600161359d565b613e4e8161355c565b15613e8e576040517f08c379a0000000000000000000000000000000000000000000000000000000008152600401613e85906163fd565b60405180910390fd5b6001606860008473ffffffffffffffffffffffffffffffffffffffff1673ffffffffffffffffffffffffffffffffffffffff16815260200190815260200160002060008282540192505081905550816067600083815260200190815260200160002060006101000a81548173ffffffffffffffffffffffffffffffffffffffff021916908373ffffffffffffffffffffffffffffffffffffffff160217905550808273ffffffffffffffffffffffffffffffffffffffff16600073ffffffffffffffffffffffffffffffffffffffff167fddf252ad1be2c89b69c2b068fc378daa952ba7f163c4a11628f55a4df523b3ef60405160405180910390a4613f986000838360016136c3565b5050565b60608315613fac57829050613fb7565b613fb68383613fd5565b5b9392505050565b600082600052816020526040600020905092915050565b600082511115613fe85781518083602001fd5b806040517f08c379a000000000000000000000000000000000000000000000000000000000815260040161401c91906141e7565b60405180910390fd5b6000604051905090565b600080fd5b600080fd5b60007fffffffff0000000000000000000000000000000000000000000000000000000082169050919050565b61406e81614039565b811461407957600080fd5b50565b60008135905061408b81614065565b92915050565b6000602082840312156140a7576140a661402f565b5b60006140b58482850161407c565b91505092915050565b60008115159050919050565b6140d3816140be565b82525050565b60006020820190506140ee60008301846140ca565b92915050565b6000819050919050565b614107816140f4565b811461411257600080fd5b50565b600081359050614124816140fe565b92915050565b6000602082840312156141405761413f61402f565b5b600061414e84828501614115565b91505092915050565b600081519050919050565b600082825260208201905092915050565b60005b83811015614191578082015181840152602081019050614176565b60008484015250505050565b6000601f19601f8301169050919050565b60006141b982614157565b6141c38185614162565b93506141d3818560208601614173565b6141dc8161419d565b840191505092915050565b6000602082019050818103600083015261420181846141ae565b905092915050565b600073ffffffffffffffffffffffffffffffffffffffff82169050919050565b600061423482614209565b9050919050565b61424481614229565b82525050565b600060208201905061425f600083018461423b565b92915050565b61426e81614229565b811461427957600080fd5b50565b60008135905061428b81614265565b92915050565b600080604083850312156142a8576142a761402f565b5b60006142b68582860161427c565b92505060206142c785828601614115565b9150509250929050565b6142da816140f4565b82525050565b60006020820190506142f560008301846142d1565b92915050565b6000602082840312156143115761431061402f565b5b600061431f8482850161427c565b91505092915050565b6000806000606084860312156143415761434061402f565b5b600061434f8682870161427c565b93505060206143608682870161427c565b925050604061437186828701614115565b9150509250925092565b6000819050919050565b61438e8161437b565b82525050565b60006020820190506143a96000830184614385565b92915050565b600080fd5b600080fd5b600080fd5b60008083601f8401126143d4576143d36143af565b5b8235905067ffffffffffffffff8111156143f1576143f06143b4565b5b60208301915083600182028301111561440d5761440c6143b9565b5b9250929050565b60008060006040848603121561442d5761442c61402f565b5b600061443b86828701614115565b935050602084013567ffffffffffffffff81111561445c5761445b614034565b5b614468868287016143be565b92509250509250925092565b600080fd5b7f4e487b7100000000000000000000000000000000000000000000000000000000600052604160045260246000fd5b6144b18261419d565b810181811067ffffffffffffffff821117156144d0576144cf614479565b5b80604052505050565b60006144e3614025565b90506144ef82826144a8565b919050565b600067ffffffffffffffff82111561450f5761450e614479565b5b6145188261419d565b9050602081019050919050565b82818337600083830152505050565b6000614547614542846144f4565b6144d9565b90508281526020810184848401111561456357614562614474565b5b61456e848285614525565b509392505050565b600082601f83011261458b5761458a6143af565b5b813561459b848260208601614534565b91505092915050565b600080604083850312156145bb576145ba61402f565b5b60006145c98582860161427c565b925050602083013567ffffffffffffffff8111156145ea576145e9614034565b5b6145f685828601614576565b9150509250929050565b600080602083850312156146175761461661402f565b5b600083013567ffffffffffffffff81111561463557614634614034565b5b614641858286016143be565b92509250509250929050565b60008083601f840112614663576146626143af565b5b8235905067ffffffffffffffff8111156146805761467f6143b4565b5b60208301915083602082028301111561469c5761469b6143b9565b5b9250929050565b6000806000604084860312156146bc576146bb61402f565b5b600084013567ffffffffffffffff8111156146da576146d9614034565b5b6146e68682870161464d565b935093505060206146f986828701614115565b9150509250925092565b61470c8161437b565b811461471757600080fd5b50565b60008135905061472981614703565b92915050565b6000602082840312156147455761474461402f565b5b60006147538482850161471a565b91505092915050565b600081519050919050565b600082825260208201905092915050565b6000819050602082019050919050565b614791816140f4565b82525050565b60006147a38383614788565b60208301905092915050565b6000602082019050919050565b60006147c78261475c565b6147d18185614767565b93506147dc83614778565b8060005b8381101561480d5781516147f48882614797565b97506147ff836147af565b9250506001810190506147e0565b5085935050505092915050565b6000602082019050818103600083015261483481846147bc565b905092915050565b600080604083850312156148535761485261402f565b5b600061486185828601614115565b925050602061487285828601614115565b9150509250929050565b614885816140be565b811461489057600080fd5b50565b6000813590506148a28161487c565b92915050565b600080604083850312156148bf576148be61402f565b5b60006148cd8582860161427c565b92505060206148de85828601614893565b9150509250929050565b600067ffffffffffffffff82111561490357614902614479565b5b61490c8261419d565b9050602081019050919050565b600061492c614927846148e8565b6144d9565b90508281526020810184848401111561494857614947614474565b5b614953848285614525565b509392505050565b600082601f8301126149705761496f6143af565b5b8135614980848260208601614919565b91505092915050565b6000806000606084860312156149a2576149a161402f565b5b600084013567ffffffffffffffff8111156149c0576149bf614034565b5b6149cc8682870161495b565b935050602084013567ffffffffffffffff8111156149ed576149ec614034565b5b6149f98682870161495b565b925050604084013567ffffffffffffffff811115614a1a57614a19614034565b5b614a268682870161495b565b9150509250925092565b60008060008060808587031215614a4a57614a4961402f565b5b6000614a588782880161427c565b9450506020614a698782880161427c565b9350506040614a7a87828801614115565b925050606085013567ffffffffffffffff811115614a9b57614a9a614034565b5b614aa787828801614576565b91505092959194509250565b60008060408385031215614aca57614ac961402f565b5b6000614ad88582860161427c565b9250506020614ae98582860161427c565b9150509250929050565b7f4e487b7100000000000000000000000000000000000000000000000000000000600052602260045260246000fd5b60006002820490506001821680614b3a57607f821691505b602082108103614b4d57614b4c614af3565b5b50919050565b7f4552433732313a20617070726f76616c20746f2063757272656e74206f776e6560008201527f7200000000000000000000000000000000000000000000000000000000000000602082015250565b6000614baf602183614162565b9150614bba82614b53565b604082019050919050565b60006020820190508181036000830152614bde81614ba2565b9050919050565b7f4552433732313a20617070726f76652063616c6c6572206973206e6f7420746f60008201527f6b656e206f776e6572206f7220617070726f76656420666f7220616c6c000000602082015250565b6000614c41603d83614162565b9150614c4c82614be5565b604082019050919050565b60006020820190508181036000830152614c7081614c34565b9050919050565b7f4552433732313a2063616c6c6572206973206e6f7420746f6b656e206f776e6560008201527f72206f7220617070726f76656400000000000000000000000000000000000000602082015250565b6000614cd3602d83614162565b9150614cde82614c77565b604082019050919050565b60006020820190508181036000830152614d0281614cc6565b9050919050565b7f46756e6374696f6e206d7573742062652063616c6c6564207468726f7567682060008201527f64656c656761746563616c6c0000000000000000000000000000000000000000602082015250565b6000614d65602c83614162565b9150614d7082614d09565b604082019050919050565b60006020820190508181036000830152614d9481614d58565b9050919050565b7f46756e6374696f6e206d7573742062652063616c6c6564207468726f7567682060008201527f6163746976652070726f78790000000000000000000000000000000000000000602082015250565b6000614df7602c83614162565b9150614e0282614d9b565b604082019050919050565b60006020820190508181036000830152614e2681614dea565b9050919050565b600082905092915050565b60008190508160005260206000209050919050565b60006020601f8301049050919050565b600082821b905092915050565b600060088302614e9a7fffffffffffffffffffffffffffffffffffffffffffffffffffffffffffffffff82614e5d565b614ea48683614e5d565b95508019841693508086168417925050509392505050565b6000819050919050565b6000614ee1614edc614ed7846140f4565b614ebc565b6140f4565b9050919050565b6000819050919050565b614efb83614ec6565b614f0f614f0782614ee8565b848454614e6a565b825550505050565b600090565b614f24614f17565b614f2f818484614ef2565b505050565b5b81811015614f5357614f48600082614f1c565b600181019050614f35565b5050565b601f821115614f9857614f6981614e38565b614f7284614e4d565b81016020851015614f81578190505b614f95614f8d85614e4d565b830182614f34565b50505b505050565b600082821c905092915050565b6000614fbb60001984600802614f9d565b1980831691505092915050565b6000614fd48383614faa565b9150826002028217905092915050565b614fee8383614e2d565b67ffffffffffffffff81111561500757615006614479565b5b6150118254614b22565b61501c828285614f57565b6000601f83116001811461504b5760008415615039578287013590505b6150438582614fc8565b8655506150ab565b601f19841661505986614e38565b60005b828110156150815784890135825560018201915060208501945060208101905061505c565b8683101561509e578489013561509a601f891682614faa565b8355505b6001600288020188555050505b50505050505050565b7f555550535570677261646561626c653a206d757374206e6f742062652063616c60008201527f6c6564207468726f7567682064656c656761746563616c6c0000000000000000602082015250565b6000615110603883614162565b915061511b826150b4565b604082019050919050565b6000602082019050818103600083015261513f81615103565b9050919050565b7f4e487b7100000000000000000000000000000000000000000000000000000000600052601160045260246000fd5b6000615180826140f4565b915061518b836140f4565b92508282019050808211156151a3576151a2615146565b5b92915050565b7f546f6b656e207175656e74697479206973206f7574206f662072616e67650000600082015250565b60006151df601e83614162565b91506151ea826151a9565b602082019050919050565b6000602082019050818103600083015261520e816151d2565b9050919050565b6000615220826140f4565b915061522b836140f4565b9250828202615239816140f4565b915082820484148315176152505761524f615146565b5b5092915050565b7f56616c7565206973206e6f7420656e6f75676800000000000000000000000000600082015250565b600061528d601383614162565b915061529882615257565b602082019050919050565b600060208201905081810360008301526152bc81615280565b9050919050565b7f43757272656e74207374617465206973206e6f7420617661696c61626c65206660008201527f6f72204561726c79204d696e742e000000000000000000000000000000000000602082015250565b600061531f602e83614162565b915061532a826152c3565b604082019050919050565b6000602082019050818103600083015261534e81615312565b9050919050565b7f416d6f756e742072756e206f7574206f66206561726c79206c696e742071756f60008201527f7461000000000000000000000000000000000000000000000000000000000000602082015250565b60006153b1602283614162565b91506153bc82615355565b604082019050919050565b600060208201905081810360008301526153e0816153a4565b9050919050565b60008160601b9050919050565b60006153ff826153e7565b9050919050565b6000615411826153f4565b9050919050565b61542961542482614229565b615406565b82525050565b600061543b8284615418565b60148201915081905092915050565b7f496e636f72726563742070726f6f662c2063757272656e74207573657220697360008201527f206e6f7420696e207468652077686974656c6973740000000000000000000000602082015250565b60006154a6603583614162565b91506154b18261544a565b604082019050919050565b600060208201905081810360008301526154d581615499565b9050919050565b7f42616c616e636520697320300000000000000000000000000000000000000000600082015250565b6000615512600c83614162565b915061551d826154dc565b602082019050919050565b6000602082019050818103600083015261554181615505565b9050919050565b600081905092915050565b50565b6000615563600083615548565b915061556e82615553565b600082019050919050565b600061558482615556565b9150819050919050565b7f5769746864726177206661696c65640000000000000000000000000000000000600082015250565b60006155c4600f83614162565b91506155cf8261558e565b602082019050919050565b600060208201905081810360008301526155f3816155b7565b9050919050565b7f4552433732313a20696e76616c696420746f6b656e2049440000000000000000600082015250565b6000615630601883614162565b915061563b826155fa565b602082019050919050565b6000602082019050818103600083015261565f81615623565b9050919050565b7f4552433732313a2061646472657373207a65726f206973206e6f74206120766160008201527f6c6964206f776e65720000000000000000000000000000000000000000000000602082015250565b60006156c2602983614162565b91506156cd82615666565b604082019050919050565b600060208201905081810360008301526156f1816156b5565b9050919050565b7f6f6e6c7920666f6d6f20706c732e2e2e00000000000000000000000000000000600082015250565b600061572e601083614162565b9150615739826156f8565b602082019050919050565b6000602082019050818103600083015261575d81615721565b9050919050565b7f5265717569726520616d6f756e74206973206f76657220746f74616c2073757060008201527f706c790000000000000000000000000000000000000000000000000000000000602082015250565b60006157c0602383614162565b91506157cb82615764565b604082019050919050565b600060208201905081810360008301526157ef816157b3565b9050919050565b7f4e487b7100000000000000000000000000000000000000000000000000000000600052603260045260246000fd5b6000615830826140f4565b91507fffffffffffffffffffffffffffffffffffffffffffffffffffffffffffffffff820361586257615861615146565b5b600182019050919050565b600081905092915050565b600061588382614157565b61588d818561586d565b935061589d818560208601614173565b80840191505092915050565b7f2e6a736f6e000000000000000000000000000000000000000000000000000000600082015250565b60006158df60058361586d565b91506158ea826158a9565b600582019050919050565b60006159018285615878565b915061590d8284615878565b9150615918826158d2565b91508190509392505050565b7f5075626c6963204d696e74206973206e6f742079657420737461727465640000600082015250565b600061595a601e83614162565b915061596582615924565b602082019050919050565b600060208201905081810360008301526159898161594d565b9050919050565b7f496e697469616c697a61626c653a20636f6e747261637420697320616c72656160008201527f647920696e697469616c697a6564000000000000000000000000000000000000602082015250565b60006159ec602e83614162565b91506159f782615990565b604082019050919050565b60006020820190508181036000830152615a1b816159df565b9050919050565b615a2b82614157565b67ffffffffffffffff811115615a4457615a43614479565b5b615a4e8254614b22565b615a59828285614f57565b600060209050601f831160018114615a8c5760008415615a7a578287015190505b615a848582614fc8565b865550615aec565b601f198416615a9a86614e38565b60005b82811015615ac257848901518255600182019150602085019450602081019050615a9d565b86831015615adf5784890151615adb601f891682614faa565b8355505b6001600288020188555050505b505050505050565b6000819050919050565b600060ff82169050919050565b6000615b26615b21615b1c84615af4565b614ebc565b615afe565b9050919050565b615b3681615b0b565b82525050565b6000602082019050615b516000830184615b2d565b92915050565b6000615b638285615878565b9150615b6f8284615878565b91508190509392505050565b7f4f776e61626c653a206e6577206f776e657220697320746865207a65726f206160008201527f6464726573730000000000000000000000000000000000000000000000000000602082015250565b6000615bd7602683614162565b9150615be282615b7b565b604082019050919050565b60006020820190508181036000830152615c0681615bca565b9050919050565b7f4f776e61626c653a2063616c6c6572206973206e6f7420746865206f776e6572600082015250565b6000615c43602083614162565b9150615c4e82615c0d565b602082019050919050565b60006020820190508181036000830152615c7281615c36565b9050919050565b7f4552433732313a207472616e736665722066726f6d20696e636f72726563742060008201527f6f776e6572000000000000000000000000000000000000000000000000000000602082015250565b6000615cd5602583614162565b9150615ce082615c79565b604082019050919050565b60006020820190508181036000830152615d0481615cc8565b9050919050565b7f4552433732313a207472616e7366657220746f20746865207a65726f2061646460008201527f7265737300000000000000000000000000000000000000000000000000000000602082015250565b6000615d67602483614162565b9150615d7282615d0b565b604082019050919050565b60006020820190508181036000830152615d9681615d5a565b9050919050565b600081519050615dac81614703565b92915050565b600060208284031215615dc857615dc761402f565b5b6000615dd684828501615d9d565b91505092915050565b7f45524331393637557067726164653a206e657720696d706c656d656e7461746960008201527f6f6e206973206e6f742055555053000000000000000000000000000000000000602082015250565b6000615e3b602e83614162565b9150615e4682615ddf565b604082019050919050565b60006020820190508181036000830152615e6a81615e2e565b9050919050565b7f45524331393637557067726164653a20756e737570706f727465642070726f7860008201527f6961626c65555549440000000000000000000000000000000000000000000000602082015250565b6000615ecd602983614162565b9150615ed882615e71565b604082019050919050565b60006020820190508181036000830152615efc81615ec0565b9050919050565b7f4e487b7100000000000000000000000000000000000000000000000000000000600052601260045260246000fd5b7f4552433732313a20617070726f766520746f2063616c6c657200000000000000600082015250565b6000615f68601983614162565b9150615f7382615f32565b602082019050919050565b60006020820190508181036000830152615f9781615f5b565b9050919050565b7f496e697469616c697a61626c653a20636f6e7472616374206973206e6f74206960008201527f6e697469616c697a696e67000000000000000000000000000000000000000000602082015250565b6000615ffa602b83614162565b915061600582615f9e565b604082019050919050565b6000602082019050818103600083015261602981615fed565b9050919050565b7f4552433732313a207472616e7366657220746f206e6f6e20455243373231526560008201527f63656976657220696d706c656d656e7465720000000000000000000000000000602082015250565b600061608c603283614162565b915061609782616030565b604082019050919050565b600060208201905081810360008301526160bb8161607f565b9050919050565b60006160cd826140f4565b91506160d8836140f4565b92508282039050818111156160f0576160ef615146565b5b92915050565b7f455243313936373a206e657720696d706c656d656e746174696f6e206973206e60008201527f6f74206120636f6e747261637400000000000000000000000000000000000000602082015250565b6000616152602d83614162565b915061615d826160f6565b604082019050919050565b6000602082019050818103600083015261618181616145565b9050919050565b600081519050919050565b600082825260208201905092915050565b60006161af82616188565b6161b98185616193565b93506161c9818560208601614173565b6161d28161419d565b840191505092915050565b60006080820190506161f2600083018761423b565b6161ff602083018661423b565b61620c60408301856142d1565b818103606083015261621e81846161a4565b905095945050505050565b60008151905061623881614065565b92915050565b6000602082840312156162545761625361402f565b5b600061626284828501616229565b91505092915050565b7f416464726573733a2064656c65676174652063616c6c20746f206e6f6e2d636f60008201527f6e74726163740000000000000000000000000000000000000000000000000000602082015250565b60006162c7602683614162565b91506162d28261626b565b604082019050919050565b600060208201905081810360008301526162f6816162ba565b9050919050565b600061630882616188565b6163128185615548565b9350616322818560208601614173565b80840191505092915050565b600061633a82846162fd565b915081905092915050565b7f4552433732313a206d696e7420746f20746865207a65726f2061646472657373600082015250565b600061637b602083614162565b915061638682616345565b602082019050919050565b600060208201905081810360008301526163aa8161636e565b9050919050565b7f4552433732313a20746f6b656e20616c7265616479206d696e74656400000000600082015250565b60006163e7601c83614162565b91506163f2826163b1565b602082019050919050565b60006020820190508181036000830152616416816163da565b905091905056fe416464726573733a206c6f772d6c6576656c2064656c65676174652063616c6c206661696c6564a2646970667358221220d61fcd670ce2cf6678e7b30944a4707f542eb490a69eaae4229c01d62ede6b3d64736f6c63430008110033",
  "linkReferences": {},
  "deployedLinkReferences": {}
}